{
  "contractName": "ExpenseTracker",
  "abi": [
    {
      "inputs": [],
      "name": "balance",
      "outputs": [
        {
          "internalType": "int256",
          "name": "",
          "type": "int256"
        }
      ],
      "stateMutability": "view",
      "type": "function",
      "constant": true
    },
    {
      "inputs": [
        {
          "internalType": "uint256",
          "name": "",
          "type": "uint256"
        }
      ],
      "name": "transaction",
      "outputs": [
        {
          "internalType": "address",
          "name": "transactionOwner",
          "type": "address"
        },
        {
          "internalType": "string",
          "name": "transactionDescription",
          "type": "string"
        },
        {
          "internalType": "int64",
          "name": "amount",
          "type": "int64"
        }
      ],
      "stateMutability": "view",
      "type": "function",
      "constant": true
    },
    {
      "inputs": [
        {
          "internalType": "string",
          "name": "description",
          "type": "string"
        },
        {
          "internalType": "int64",
          "name": "amount",
          "type": "int64"
        }
      ],
      "name": "addTransaction",
      "outputs": [],
      "stateMutability": "nonpayable",
      "type": "function"
    },
    {
      "inputs": [],
      "name": "transactionCount",
      "outputs": [
        {
          "internalType": "uint256",
          "name": "",
          "type": "uint256"
        }
      ],
      "stateMutability": "view",
      "type": "function",
      "constant": true
    },
    {
      "inputs": [],
      "name": "getHello",
      "outputs": [
        {
          "internalType": "string",
          "name": "",
          "type": "string"
        }
      ],
      "stateMutability": "pure",
      "type": "function",
      "constant": true
    }
  ],
  "bytecode": "0x6080604052600160005534801561001557600080fd5b50610644806100256000396000f3fe608060405234801561001057600080fd5b50600436106100575760003560e01c806346bd08411461005c57806372d06472146101435780638da9b7721461020b578063b69ef8a81461028e578063b77bf600146102ac575b600080fd5b6100886004803603602081101561007257600080fd5b81019080803590602001909291905050506102ca565b604051808473ffffffffffffffffffffffffffffffffffffffff1673ffffffffffffffffffffffffffffffffffffffff168152602001806020018360070b60070b8152602001828103825284818151815260200191508051906020019080838360005b838110156101065780820151818401526020810190506100eb565b50505050905090810190601f1680156101335780820380516001836020036101000a031916815260200191505b5094505050505060405180910390f35b6102096004803603604081101561015957600080fd5b810190808035906020019064010000000081111561017657600080fd5b82018360208201111561018857600080fd5b803590602001918460018302840111640100000000831117156101aa57600080fd5b91908080601f016020809104026020016040519081016040528093929190818152602001838380828437600081840152601f19601f820116905080830192505050505050509192919290803560070b90602001909291905050506103c6565b005b6102136104df565b6040518080602001828103825283818151815260200191508051906020019080838360005b83811015610253578082015181840152602081019050610238565b50505050905090810190601f1680156102805780820380516001836020036101000a031916815260200191505b509250505060405180910390f35b61029661051c565b6040518082815260200191505060405180910390f35b6102b4610522565b6040518082815260200191505060405180910390f35b600181815481106102d757fe5b90600052602060002090600302016000915090508060000160009054906101000a900473ffffffffffffffffffffffffffffffffffffffff1690806001018054600181600116156101000203166002900480601f0160208091040260200160405190810160405280929190818152602001828054600181600116156101000203166002900480156103a95780601f1061037e576101008083540402835291602001916103a9565b820191906000526020600020905b81548152906001019060200180831161038c57829003601f168201915b5050505050908060020160009054906101000a900460070b905083565b6103ce61052f565b60405180606001604052803373ffffffffffffffffffffffffffffffffffffffff1681526020018481526020018360070b8152509050600181908060018154018082558091505060019003906000526020600020906003020160009091909190915060008201518160000160006101000a81548173ffffffffffffffffffffffffffffffffffffffff021916908373ffffffffffffffffffffffffffffffffffffffff1602179055506020820151816001019080519060200190610493929190610569565b5060408201518160020160006101000a81548167ffffffffffffffff021916908360070b67ffffffffffffffff16021790555050508160070b6000808282540192505081905550505050565b60606040518060400160405280601381526020017f48656c6c6f2066726f6d20436f6e747261637400000000000000000000000000815250905090565b60005481565b6000600180549050905090565b6040518060600160405280600073ffffffffffffffffffffffffffffffffffffffff16815260200160608152602001600060070b81525090565b828054600181600116156101000203166002900490600052602060002090601f016020900481019282601f106105aa57805160ff19168380011785556105d8565b828001600101855582156105d8579182015b828111156105d75782518255916020019190600101906105bc565b5b5090506105e591906105e9565b5090565b61060b91905b808211156106075760008160009055506001016105ef565b5090565b9056fea2646970667358221220b90ecce0009cd63703d64adf3ebb35776913cdd31fade87b3f3c67a2e23486d764736f6c63430006000033",
  "source": "pragma solidity >=0.4.22 <0.9.0;\r\n\r\ncontract ExpenseTracker {\r\n    \r\n    int public balance = 1;\r\n    \r\n    Transaction[] public transaction;\r\n\r\n    struct Transaction {\r\n        address transactionOwner;\r\n        string transactionDescription;\r\n        int64 amount;\r\n    }\r\n    \r\n    function addTransaction(string memory description , int64 amount) public {\r\n        Transaction memory tx1 = Transaction(msg.sender,description,amount);\r\n        transaction.push(tx1);\r\n        balance += amount;\r\n    }\r\n    \r\n    function transactionCount() public view returns (uint){\r\n        return transaction.length;\r\n    }\r\n\r\n    function getHello() public pure returns (string memory){\r\n        return \"Hello from Contract\";\r\n    }\r\n    \r\n}",
  "sourcePath": "G:/expenseTracker/backend/contracts/ExpenseTracker.sol",
  "compiler": {
    "name": "solc",
    "version": "0.6.0+commit.26b70077.Emscripten.clang"
  },
  "schemaVersion": "3.4.1",
  "updatedAt": "2021-06-27T18:23:10.469Z",
  "networkType": "ethereum",
  "devdoc": {
    "methods": {}
  },
  "userdoc": {
    "methods": {}
  }
}